:100000000C942A000C9434000C9434000C943400AA
:100010000C9434000C9434000C9434000C94340090
:100020000C9434000C9434000C9434000C94340080
:100030000C9434000C9434000C9434000C94340070
:100040000C9434000C9434000C9434000C94340060
:100050000C94340011241FBECFE5D4E0DEBFCDBF29
:100060000E9451000C9477000C94000088E088BB3B
:1000700080E182BB089518BA80EA82BB089588E0C7
:1000800088BB80EB82BB089518BA80E182BB0895DB
:1000900088E088BB12BA089588E087BB80EB81BBFB
:1000A000089588E087BB80EB81BB48E070E129E1DF
:1000B00030E060EB50EA48BB72BB80E29EE4F9019D
:1000C0003197F1F70197D9F748BB62BB88E893E114
:1000D000F9013197F1F70197D9F718BA52BB80E2CD
:1000E0009EE4F9013197F1F70197D9F7E4CFF8943D
:0200F000FFCF40
:00000001FF
