:100000000C942A000C9434000C9434000C943400AA
:100010000C9434000C9434000C9434000C94340090
:100020000C9434000C9434000C9434000C94340080
:100030000C9434000C9434000C9434000C94340070
:100040000C9434000C9434000C9434000C94340060
:100050000C94340011241FBECFE5D4E0DEBFCDBF29
:100060000E9467000C9470000C94000088E088BB2C
:1000700080E182BB089518BA80EA82BB089588E0C7
:1000800088BB80EB82BB80E197E229E130E0F90197
:100090003197F1F70197D9F7089518BA80E182BB3B
:1000A00080E49CE929E130E0F9013197F1F701970B
:1000B000D9F7089588E088BB12BA80E49CE929E169
:1000C00030E0F9013197F1F70197D9F7089588E009
:1000D00087BB80EB81BB0E944D000E943F00FBCF9D
:0400E000F894FFCFC2
:00000001FF
