:100000000C942A000C9434000C9434000C943400AA
:100010000C9434000C9434000C9434000C94340090
:100020000C9434000C9434000C9434000C94340080
:100030000C9434000C9434000C9434000C94340070
:100040000C9434000C9434000C9434000C94340060
:100050000C94340011241FBECFE5D4E0DEBFCDBF29
:100060000E9451000C94A4000C94000088E088BB0E
:1000700080E182BB089518BA80EA82BB089588E0C7
:1000800088BB80EB82BB089518BA80E182BB0895DB
:1000900088E088BB12BA0895BB9A81B3806B81BB9C
:1000A0000895BB9A81B3806B81BB48E060E129E190
:1000B00030E050EB70EA48BB62BB80E29EE4F9019D
:1000C0003197F1F70197D9F748BB52BB88E893E124
:1000D000F9013197F1F70197D9F718BA72BB80E2AD
:1000E0009EE4F9013197F1F70197D9F748BB52BB6C
:1000F00088E893E1F9013197F1F70197D9F718BA38
:1001000062BB80E29EE4F9013197F1F70197D9F7DC
:1001100048BB52BB88E893E1F9013197F1F70197A9
:10012000D9F748BB12BA80E29EE4F9013197F1F7A2
:100130000197D9F748BB52BB88E893E1F9013197A1
:0C014000F1F70197D9F7B7CFF894FFCF83
:00000001FF
