:100000000C942A000C9434000C9434000C943400AA
:100010000C9434000C9434000C9434000C94340090
:100020000C9434000C9434000C9434000C94340080
:100030000C9434000C9434000C9434000C94340070
:100040000C9434000C9434000C9434000C94340060
:100050000C94340011241FBECFE5D4E0DEBFCDBF29
:100060000E9436000C9451000C94000080E187BB84
:1000700080EB81BB40E129E130E050EA48BB42BB64
:1000800080E197E2F9013197F1F70197D9F718BAB2
:1000900052BB80E197E2F9013197F1F70197D9F767
:0600A000EDCFF894FFCF44
:00000001FF
