:100000000C942A000C9434000C9434000C943400AA
:100010000C9434000C9434000C9434000C94340090
:100020000C9434000C9434000C9434000C94340080
:100030000C9434000C9434000C9434000C94340070
:100040000C9434000C9434000C9434000C94340060
:100050000C94340011241FBECFE5D4E0DEBFCDBF29
:100060000E9461000C94F8000C94000083E389B9AD
:1000700010BC86E880BD88ED8AB908955F9BFECFED
:100080008CB108955D9BFECF8CB90895BB9A81B366
:10009000806B81BB089588E088BB80E182BB0895B6
:1000A00018BA80EA82BB089588E088BB80EB82BBE7
:1000B000089518BA80E182BB089588E088BB12BA1F
:1000C000089583E389B910BC86E880BD88ED8AB9BC
:1000D000BB9A81B3806B81BB40E951E038E060EBB3
:1000E00070E1A0EA5F9BFECF2CB188E893E1FA01B2
:1000F0003197F1F70197D9F75D9BFECF2CB92634E4
:10010000E1F438BB62BB88E893E1FA013197F1F77B
:100110000197D9F738BB72BB80E29EE4FA013197B0
:10012000F1F70197D9F738BB62BB88E893E1FA0190
:100130003197F1F70197D9F7D5CF2234E1F438BBE5
:1001400062BB88E893E1FA013197F1F70197D9F79B
:1001500018BAA2BB80E29EE4FA013197F1F7019749
:10016000D9F738BB62BB88E893E1FA013197F1F720
:100170000197D9F7B7CF2C34E1F438BB62BB88E8DC
:1001800093E1FA013197F1F70197D9F718BA72BBE9
:1001900080E29EE4FA013197F1F70197D9F738BB75
:1001A00062BB88E893E1FA013197F1F70197D9F73B
:1001B00099CF223509F096CF38BB62BB88E893E12E
:1001C000FA013197F1F70197D9F738BB12BA80E2FB
:1001D0009EE4FA013197F1F70197D9F738BB62BB7A
:1001E00088E893E1FA013197F1F70197D9F77ACFCF
:0401F000F894FFCFB1
:00000001FF
