:100000000C942A000C9434000C9434000C943400AA
:100010000C9434000C9434000C9434000C94340090
:100020000C9434000C9434000C9434000C94340080
:100030000C9434000C9434000C9434000C94340070
:100040000C9434000C9434000C9434000C94340060
:100050000C94340011241FBECFE5D4E0DEBFCDBF29
:100060000E9461000C9495000C94000086E089B910
:1000700010BC86E880BD88ED8AB908955F9BFECFED
:100080008CB108955D9BFECF8CB90895BB9A81B366
:10009000806B81BB089588E088BB80E182BB0895B6
:1000A00018BA80EA82BB089588E088BB80EB82BBE7
:1000B000089518BA80E182BB089588E088BB12BA1F
:1000C000089586E089B910BC86E880BD88ED8AB9BC
:1000D000BB9A81B3806B81BB48EA51E638E060E5AA
:1000E00073ECE0EBF0E1A0EA5F9BFECF2CB1CA011C
:1000F0000197F1F7263411F438BB08C0223419F403
:1001000018BAA2BB09C02C3419F418BAF2BB04C047
:10011000223551F738BB12BACB010197F1F738BB42
:0E012000E2BBCA010197F1F7DFCFF894FFCFE1
:00000001FF
