:100000000C942A000C9434000C9434000C943400AA
:100010000C9434000C9434000C9434000C94340090
:100020000C9434000C9434000C9434000C94340080
:100030000C9434000C9434000C9434000C94340070
:100040000C9434000C9434000C9434000C94340060
:100050000C94340011241FBECFE5D4E0DEBFCDBF29
:100060000E9458000C94AC000C94000087E689B9FB
:1000700010BC86E880BD88ED8AB908955F9BFECFED
:100080008CB1089588E088BB80E182BB089518BADE
:1000900080EA82BB089588E088BB80EB82BB08952C
:1000A00018BA80E182BB089588E088BB12BA08952F
:1000B00087E689B910BC86E880BD88ED8AB983E0FF
:1000C0008ABB49E150E068E030E170EA5F9BFECF17
:1000D0002CB188E893E1FA013197F1F70197D9F74C
:1000E000222369F168BB32BB80E29EE4FA013197BA
:1000F000F1F70197D9F7213351F468BB32BB80E2A5
:100100009EE4FA013197F1F70197D9F7DFCF223357
:1001100051F418BA72BB80E29EE4FA013197F1F70C
:100120000197D9F7D3CF233351F418BA32BB80E209
:100130009EE4FA013197F1F70197D9F7C7CF24333D
:1001400009F0C4CF68BB12BA80E29EE4FA0131978D
:0C015000F1F70197D9F7BACFF894FFCF70
:00000001FF
