:100000000C942A000C9434000C9434000C943400AA
:100010000C9434000C9434000C9434000C94340090
:100020000C9434000C9434000C9434000C94340080
:100030000C9434000C9434000C9434000C94340070
:100040000C9434000C9434000C9434000C94340060
:100050000C94340011241FBECFE5D4E0DEBFCDBF29
:100060000E945D000C94B6000C94000083E389B9F3
:1000700010BC86E880BD88ED8AB908955F9BFECFED
:100080008CB1089588E088BB80E182BB089518BADE
:1000900080EA82BB089588E088BB80EB82BB08952C
:1000A00018BA80E182BB089588E088BB12BA08952F
:1000B00088E087BB80EB81BB089583E389B910BCDE
:1000C00086E880BD88ED8AB988E087BB80EB81BB7C
:1000D00049E150E038E060E1A0EB70EA5F9BFECFC1
:1000E0002CB188E893E1FA013197F1F70197D9F73C
:1000F0002223A1F338BB62BB80E29EE4FA01319770
:10010000F1F70197D9F738BBA2BB213051F438BBC6
:1001100062BB80E29EE4FA013197F1F70197D9F7CB
:10012000DDCF223051F418BA72BB80E29EE4FA01AE
:100130003197F1F70197D9F7D1CF233051F418BA9D
:1001400062BB80E29EE4FA013197F1F70197D9F79B
:10015000C5CF243009F0C2CF38BB12BA80E29EE48A
:10016000FA013197F1F70197D9F7B8CFF894FFCF9B
:00000001FF
